{
  "_format": "hh-sol-artifact-1",
  "contractName": "PatientRecord",
  "sourceName": "contracts/PatientRecord.sol",
  "abi": [
    {
      "inputs": [
        {
          "internalType": "address",
          "name": "_owner",
          "type": "address"
        }
      ],
      "stateMutability": "nonpayable",
      "type": "constructor"
    },
    {
      "inputs": [
        {
          "internalType": "string",
          "name": "_doctorId",
          "type": "string"
        },
        {
          "internalType": "string",
          "name": "_appointmentDate",
          "type": "string"
        },
        {
          "internalType": "string",
          "name": "_doctorNotes",
          "type": "string"
        },
        {
          "internalType": "string",
          "name": "_diagnosis",
          "type": "string"
        },
        {
          "internalType": "string",
          "name": "_prescriptions",
          "type": "string"
        },
        {
          "internalType": "string",
          "name": "_followUpPlan",
          "type": "string"
        }
      ],
      "name": "addRecord",
      "outputs": [],
      "stateMutability": "nonpayable",
      "type": "function"
    },
    {
      "inputs": [],
      "name": "getAllRecords",
      "outputs": [
        {
          "components": [
            {
              "internalType": "string",
              "name": "doctorId",
              "type": "string"
            },
            {
              "internalType": "string",
              "name": "appointmentDate",
              "type": "string"
            },
            {
              "internalType": "string",
              "name": "doctorNotes",
              "type": "string"
            },
            {
              "internalType": "string",
              "name": "diagnosis",
              "type": "string"
            },
            {
              "internalType": "string",
              "name": "prescriptions",
              "type": "string"
            },
            {
              "internalType": "string",
              "name": "followUpPlan",
              "type": "string"
            }
          ],
          "internalType": "struct PatientRecord.Record[]",
          "name": "",
          "type": "tuple[]"
        }
      ],
      "stateMutability": "view",
      "type": "function"
    },
    {
      "inputs": [
        {
          "internalType": "uint256",
          "name": "_index",
          "type": "uint256"
        }
      ],
      "name": "getRecord",
      "outputs": [
        {
          "internalType": "string",
          "name": "",
          "type": "string"
        },
        {
          "internalType": "string",
          "name": "",
          "type": "string"
        },
        {
          "internalType": "string",
          "name": "",
          "type": "string"
        },
        {
          "internalType": "string",
          "name": "",
          "type": "string"
        },
        {
          "internalType": "string",
          "name": "",
          "type": "string"
        },
        {
          "internalType": "string",
          "name": "",
          "type": "string"
        }
      ],
      "stateMutability": "view",
      "type": "function"
    },
    {
      "inputs": [],
      "name": "getRecordCount",
      "outputs": [
        {
          "internalType": "uint256",
          "name": "",
          "type": "uint256"
        }
      ],
      "stateMutability": "view",
      "type": "function"
    },
    {
      "inputs": [],
      "name": "owner",
      "outputs": [
        {
          "internalType": "address",
          "name": "",
          "type": "address"
        }
      ],
      "stateMutability": "view",
      "type": "function"
    },
    {
      "inputs": [
        {
          "internalType": "uint256",
          "name": "",
          "type": "uint256"
        }
      ],
      "name": "records",
      "outputs": [
        {
          "internalType": "string",
          "name": "doctorId",
          "type": "string"
        },
        {
          "internalType": "string",
          "name": "appointmentDate",
          "type": "string"
        },
        {
          "internalType": "string",
          "name": "doctorNotes",
          "type": "string"
        },
        {
          "internalType": "string",
          "name": "diagnosis",
          "type": "string"
        },
        {
          "internalType": "string",
          "name": "prescriptions",
          "type": "string"
        },
        {
          "internalType": "string",
          "name": "followUpPlan",
          "type": "string"
        }
      ],
      "stateMutability": "view",
      "type": "function"
    }
  ],
  "bytecode": "0x608060405234801561001057600080fd5b506040516119e23803806119e2833981810160405281019061003291906100db565b806000806101000a81548173ffffffffffffffffffffffffffffffffffffffff021916908373ffffffffffffffffffffffffffffffffffffffff16021790555050610108565b600080fd5b600073ffffffffffffffffffffffffffffffffffffffff82169050919050565b60006100a88261007d565b9050919050565b6100b88161009d565b81146100c357600080fd5b50565b6000815190506100d5816100af565b92915050565b6000602082840312156100f1576100f0610078565b5b60006100ff848285016100c6565b91505092915050565b6118cb806101176000396000f3fe608060405234801561001057600080fd5b50600436106100625760003560e01c806303e9e60914610067578063344610671461009c5780638da5cb5b146100d1578063a7f9fe72146100ef578063ca267f281461010d578063f06b3b791461012b575b600080fd5b610081600480360381019061007c9190610e9e565b610147565b60405161009396959493929190610f5b565b60405180910390f35b6100b660048036038101906100b19190610e9e565b610568565b6040516100c896959493929190610f5b565b60405180910390f35b6100d96108e4565b6040516100e69190611027565b60405180910390f35b6100f7610908565b60405161010491906111fa565b60405180910390f35b610115610cd3565b604051610122919061122b565b60405180910390f35b6101456004803603810190610140919061137b565b610ce0565b005b6060806060806060806001805490508710610197576040517f08c379a000000000000000000000000000000000000000000000000000000000815260040161018e906114fc565b60405180910390fd5b6000600188815481106101ad576101ac61151c565b5b90600052602060002090600602016040518060c00160405290816000820180546101d69061157a565b80601f01602080910402602001604051908101604052809291908181526020018280546102029061157a565b801561024f5780601f106102245761010080835404028352916020019161024f565b820191906000526020600020905b81548152906001019060200180831161023257829003601f168201915b505050505081526020016001820180546102689061157a565b80601f01602080910402602001604051908101604052809291908181526020018280546102949061157a565b80156102e15780601f106102b6576101008083540402835291602001916102e1565b820191906000526020600020905b8154815290600101906020018083116102c457829003601f168201915b505050505081526020016002820180546102fa9061157a565b80601f01602080910402602001604051908101604052809291908181526020018280546103269061157a565b80156103735780601f1061034857610100808354040283529160200191610373565b820191906000526020600020905b81548152906001019060200180831161035657829003601f168201915b5050505050815260200160038201805461038c9061157a565b80601f01602080910402602001604051908101604052809291908181526020018280546103b89061157a565b80156104055780601f106103da57610100808354040283529160200191610405565b820191906000526020600020905b8154815290600101906020018083116103e857829003601f168201915b5050505050815260200160048201805461041e9061157a565b80601f016020809104026020016040519081016040528092919081815260200182805461044a9061157a565b80156104975780601f1061046c57610100808354040283529160200191610497565b820191906000526020600020905b81548152906001019060200180831161047a57829003601f168201915b505050505081526020016005820180546104b09061157a565b80601f01602080910402602001604051908101604052809291908181526020018280546104dc9061157a565b80156105295780601f106104fe57610100808354040283529160200191610529565b820191906000526020600020905b81548152906001019060200180831161050c57829003601f168201915b5050505050815250509050806000015181602001518260400151836060015184608001518560a001519650965096509650965096505091939550919395565b6001818154811061057857600080fd5b906000526020600020906006020160009150905080600001805461059b9061157a565b80601f01602080910402602001604051908101604052809291908181526020018280546105c79061157a565b80156106145780601f106105e957610100808354040283529160200191610614565b820191906000526020600020905b8154815290600101906020018083116105f757829003601f168201915b5050505050908060010180546106299061157a565b80601f01602080910402602001604051908101604052809291908181526020018280546106559061157a565b80156106a25780601f10610677576101008083540402835291602001916106a2565b820191906000526020600020905b81548152906001019060200180831161068557829003601f168201915b5050505050908060020180546106b79061157a565b80601f01602080910402602001604051908101604052809291908181526020018280546106e39061157a565b80156107305780601f1061070557610100808354040283529160200191610730565b820191906000526020600020905b81548152906001019060200180831161071357829003601f168201915b5050505050908060030180546107459061157a565b80601f01602080910402602001604051908101604052809291908181526020018280546107719061157a565b80156107be5780601f10610793576101008083540402835291602001916107be565b820191906000526020600020905b8154815290600101906020018083116107a157829003601f168201915b5050505050908060040180546107d39061157a565b80601f01602080910402602001604051908101604052809291908181526020018280546107ff9061157a565b801561084c5780601f106108215761010080835404028352916020019161084c565b820191906000526020600020905b81548152906001019060200180831161082f57829003601f168201915b5050505050908060050180546108619061157a565b80601f016020809104026020016040519081016040528092919081815260200182805461088d9061157a565b80156108da5780601f106108af576101008083540402835291602001916108da565b820191906000526020600020905b8154815290600101906020018083116108bd57829003601f168201915b5050505050905086565b60008054906101000a900473ffffffffffffffffffffffffffffffffffffffff1681565b60606001805480602002602001604051908101604052809291908181526020016000905b82821015610cca57838290600052602060002090600602016040518060c001604052908160008201805461095f9061157a565b80601f016020809104026020016040519081016040528092919081815260200182805461098b9061157a565b80156109d85780601f106109ad576101008083540402835291602001916109d8565b820191906000526020600020905b8154815290600101906020018083116109bb57829003601f168201915b505050505081526020016001820180546109f19061157a565b80601f0160208091040260200160405190810160405280929190818152602001828054610a1d9061157a565b8015610a6a5780601f10610a3f57610100808354040283529160200191610a6a565b820191906000526020600020905b815481529060010190602001808311610a4d57829003601f168201915b50505050508152602001600282018054610a839061157a565b80601f0160208091040260200160405190810160405280929190818152602001828054610aaf9061157a565b8015610afc5780601f10610ad157610100808354040283529160200191610afc565b820191906000526020600020905b815481529060010190602001808311610adf57829003601f168201915b50505050508152602001600382018054610b159061157a565b80601f0160208091040260200160405190810160405280929190818152602001828054610b419061157a565b8015610b8e5780601f10610b6357610100808354040283529160200191610b8e565b820191906000526020600020905b815481529060010190602001808311610b7157829003601f168201915b50505050508152602001600482018054610ba79061157a565b80601f0160208091040260200160405190810160405280929190818152602001828054610bd39061157a565b8015610c205780601f10610bf557610100808354040283529160200191610c20565b820191906000526020600020905b815481529060010190602001808311610c0357829003601f168201915b50505050508152602001600582018054610c399061157a565b80601f0160208091040260200160405190810160405280929190818152602001828054610c659061157a565b8015610cb25780601f10610c8757610100808354040283529160200191610cb2565b820191906000526020600020905b815481529060010190602001808311610c9557829003601f168201915b5050505050815250508152602001906001019061092c565b50505050905090565b6000600180549050905090565b60008054906101000a900473ffffffffffffffffffffffffffffffffffffffff1673ffffffffffffffffffffffffffffffffffffffff163373ffffffffffffffffffffffffffffffffffffffff1614610d6e576040517f08c379a0000000000000000000000000000000000000000000000000000000008152600401610d65906115f7565b60405180910390fd5b60016040518060c001604052808881526020018781526020018681526020018581526020018481526020018381525090806001815401808255809150506001900390600052602060002090600602016000909190919091506000820151816000019081610ddb91906117c3565b506020820151816001019081610df191906117c3565b506040820151816002019081610e0791906117c3565b506060820151816003019081610e1d91906117c3565b506080820151816004019081610e3391906117c3565b5060a0820151816005019081610e4991906117c3565b505050505050505050565b6000604051905090565b600080fd5b600080fd5b6000819050919050565b610e7b81610e68565b8114610e8657600080fd5b50565b600081359050610e9881610e72565b92915050565b600060208284031215610eb457610eb3610e5e565b5b6000610ec284828501610e89565b91505092915050565b600081519050919050565b600082825260208201905092915050565b60005b83811015610f05578082015181840152602081019050610eea565b60008484015250505050565b6000601f19601f8301169050919050565b6000610f2d82610ecb565b610f378185610ed6565b9350610f47818560208601610ee7565b610f5081610f11565b840191505092915050565b600060c0820190508181036000830152610f758189610f22565b90508181036020830152610f898188610f22565b90508181036040830152610f9d8187610f22565b90508181036060830152610fb18186610f22565b90508181036080830152610fc58185610f22565b905081810360a0830152610fd98184610f22565b9050979650505050505050565b600073ffffffffffffffffffffffffffffffffffffffff82169050919050565b600061101182610fe6565b9050919050565b61102181611006565b82525050565b600060208201905061103c6000830184611018565b92915050565b600081519050919050565b600082825260208201905092915050565b6000819050602082019050919050565b600082825260208201905092915050565b600061108a82610ecb565b611094818561106e565b93506110a4818560208601610ee7565b6110ad81610f11565b840191505092915050565b600060c08301600083015184820360008601526110d5828261107f565b915050602083015184820360208601526110ef828261107f565b91505060408301518482036040860152611109828261107f565b91505060608301518482036060860152611123828261107f565b9150506080830151848203608086015261113d828261107f565b91505060a083015184820360a0860152611157828261107f565b9150508091505092915050565b600061117083836110b8565b905092915050565b6000602082019050919050565b600061119082611042565b61119a818561104d565b9350836020820285016111ac8561105e565b8060005b858110156111e857848403895281516111c98582611164565b94506111d483611178565b925060208a019950506001810190506111b0565b50829750879550505050505092915050565b600060208201905081810360008301526112148184611185565b905092915050565b61122581610e68565b82525050565b6000602082019050611240600083018461121c565b92915050565b600080fd5b600080fd5b7f4e487b7100000000000000000000000000000000000000000000000000000000600052604160045260246000fd5b61128882610f11565b810181811067ffffffffffffffff821117156112a7576112a6611250565b5b80604052505050565b60006112ba610e54565b90506112c6828261127f565b919050565b600067ffffffffffffffff8211156112e6576112e5611250565b5b6112ef82610f11565b9050602081019050919050565b82818337600083830152505050565b600061131e611319846112cb565b6112b0565b90508281526020810184848401111561133a5761133961124b565b5b6113458482856112fc565b509392505050565b600082601f83011261136257611361611246565b5b813561137284826020860161130b565b91505092915050565b60008060008060008060c0878903121561139857611397610e5e565b5b600087013567ffffffffffffffff8111156113b6576113b5610e63565b5b6113c289828a0161134d565b965050602087013567ffffffffffffffff8111156113e3576113e2610e63565b5b6113ef89828a0161134d565b955050604087013567ffffffffffffffff8111156114105761140f610e63565b5b61141c89828a0161134d565b945050606087013567ffffffffffffffff81111561143d5761143c610e63565b5b61144989828a0161134d565b935050608087013567ffffffffffffffff81111561146a57611469610e63565b5b61147689828a0161134d565b92505060a087013567ffffffffffffffff81111561149757611496610e63565b5b6114a389828a0161134d565b9150509295509295509295565b7f496e76616c696420696e64657800000000000000000000000000000000000000600082015250565b60006114e6600d83610ed6565b91506114f1826114b0565b602082019050919050565b60006020820190508181036000830152611515816114d9565b9050919050565b7f4e487b7100000000000000000000000000000000000000000000000000000000600052603260045260246000fd5b7f4e487b7100000000000000000000000000000000000000000000000000000000600052602260045260246000fd5b6000600282049050600182168061159257607f821691505b6020821081036115a5576115a461154b565b5b50919050565b7f4e6f7420617574686f72697a6564000000000000000000000000000000000000600082015250565b60006115e1600e83610ed6565b91506115ec826115ab565b602082019050919050565b60006020820190508181036000830152611610816115d4565b9050919050565b60008190508160005260206000209050919050565b60006020601f8301049050919050565b600082821b905092915050565b6000600883026116797fffffffffffffffffffffffffffffffffffffffffffffffffffffffffffffffff8261163c565b611683868361163c565b95508019841693508086168417925050509392505050565b6000819050919050565b60006116c06116bb6116b684610e68565b61169b565b610e68565b9050919050565b6000819050919050565b6116da836116a5565b6116ee6116e6826116c7565b848454611649565b825550505050565b600090565b6117036116f6565b61170e8184846116d1565b505050565b5b81811015611732576117276000826116fb565b600181019050611714565b5050565b601f8211156117775761174881611617565b6117518461162c565b81016020851015611760578190505b61177461176c8561162c565b830182611713565b50505b505050565b600082821c905092915050565b600061179a6000198460080261177c565b1980831691505092915050565b60006117b38383611789565b9150826002028217905092915050565b6117cc82610ecb565b67ffffffffffffffff8111156117e5576117e4611250565b5b6117ef825461157a565b6117fa828285611736565b600060209050601f83116001811461182d576000841561181b578287015190505b61182585826117a7565b86555061188d565b601f19841661183b86611617565b60005b828110156118635784890151825560018201915060208501945060208101905061183e565b86831015611880578489015161187c601f891682611789565b8355505b6001600288020188555050505b50505050505056fea26469706673582212208e4e82ff25af6242864cb884ee091585827695354a562150cba7d4a79c1284dd64736f6c634300081b0033",
  "linkReferences": {},
  "deployedLinkReferences": {}
}